:100000000C942A000C9447000C9447000C94470071
:100010000C9447000C9447000C9447000C94470044
:100020000C9447000C94E3010C9447000C94470097
:100030000C9447000C9447000C9447000C94470024
:100040000C9447000C9447000C9447000C94470014
:100050000C94470011241FBECFE5D4E0DEBFCDBF16
:1000600010E0A0E6B0E0EEEFF4E002C005900D92E3
:10007000AE36B107D9F720E0AEE6B0E001C01D9280
:10008000A037B207E1F70E94D0010C947D020C94D6
:100090000000C59A0000C5980895CF93C82F662325
:1000A00011F0C79A01C0C798C6988E9A8D9A8C9AFB
:1000B0008B9A9398949895989698CC230CF4939A4D
:1000C000C6FD949AC5FD959AC4FD969A0E94490072
:1000D0009398949895989698C3FD939AC2FD949A94
:1000E000C1FD959AC0FD969A0E944900969A959AEC
:1000F000949A939ACF910895882311F0C79A01C0DA
:10010000C798C69A8E988D988C988B98C59A00003F
:10011000869B02C080E101C080E08599806284995D
:10012000806483998068C5980000C59A000086990C
:100130008160859982608499846083998860C5987C
:10014000089580E00E947C008823DCF300C000C09A
:1001500080E00E947C000895CF93C82F0E94A100E8
:1001600060E08C2F0E944D00CF910895611104C072
:1001700080580E94AC00089580540E94AC000895FD
:1001800081E00E94AC00089582E00E94AC000895D6
:10019000CF93C82F0E94A100CA3049F4803410F0D8
:1001A00080E001C080E480580E94AC0004C061E09F
:1001B0008C2F0E944D00CF910895CF93DF93EC01D7
:1001C0002196FC018081882329F00E94C800899132
:1001D0008111FBCFDF91CF910895CF93C82FBF9AA4
:1001E000BE9ABD9A8E9A8D9A8C9A8B9A8FE99FE0CF
:1001F0000197F1F700C00000959A969A0E94490075
:1002000081EE94E00197F1F700C000000E944900E0
:1002100095E19A95F1F700000E94490085E18A95E1
:10022000F1F7000096980E94490095E19A95F1F740
:10023000000088E20E94AC0088E00E94AC000E94AE
:10024000C00086E00E94AC008C2F0E94AC00CF91D1
:1002500008951FBC8EB580748EBD8EB586608EBD30
:1002600089B7846089BF88B7846088BF1DBC1CBC07
:1002700008958FE08BBB80E78ABB0895CB9919C0A6
:100280002FEF40E782E0215040408040E1F700C07E
:100290000000CB9BFECF9FEF23EF41E09150204029
:1002A0004040E1F700C00000DC9A82B3805882BB76
:1002B0000895CA991AC08FEF90E722E081509040CC
:1002C0002040E1F700C00000CA9BFECF82B38058F7
:1002D00082BBDD9A4FEF83EC99E041508040904023
:1002E000E1F700C00000DD980895C9991AC02FEF0A
:1002F00040E782E0215040408040E1F700C000002C
:10030000C99BFECF82B3805882BBDE9A9FEF23EC5D
:1003100049E0915020404040E1F700C00000DE98E5
:100320000895C89931C08FEF96E721E08150904041
:100330002040E1F700C00000C89BFECF4FEF83EFE5
:1003400091E0415080409040E1F700C0000022E37E
:1003500030E082B3805882BBDE9A4FEF80E792E0B4
:10036000415080409040E1F700C00000DE984FEF20
:1003700080E792E0415080409040E1F700C00000EB
:100380002150310931F7DC98089583B7856083BF28
:1003900089B7816089BF88B7816088BF12BE089520
:1003A00078940E9439010E94C5010E9429012FEF13
:1003B00083ED90E3215080409040E1F700C00000C1
:1003C0000E943E01FDCF1F920F920FB60F92112493
:1003D0002F933F934F935F936F937F938F939F934D
:1003E000AF93BF93EF93FF93CF93DF93CDB7DEB778
:1003F0002F97DEBFCDBF80916E0090916F00019668
:1004000090936F0080936E00CD97A1F58CB59DB54C
:100410009F878E878E859F859C01220F331F220F19
:10042000331F820F931F9D878C878C859D854AE0A3
:10043000BE016F5F7F4F0E9453021DBC1CBC8CE04D
:100440000E94ED000E94C00060E080E00E94B600C3
:1004500080E690E00E94DD0061E080E00E94B6004E
:10046000CE0101960E94DD000E94C40010926F0030
:1004700010926E002F960FB6F894DEBF0FBECDBF60
:10048000DF91CF91FF91EF91BF91AF919F918F91AC
:100490007F916F915F914F913F912F910F900FBE80
:1004A0000F901F901895BB27FB015527AA27880F8F
:1004B000991FAA1FA41710F0A41B83955051B9F7D8
:1004C000A05DAA3308F0A95DA193009779F7B11157
:1004D000B1931192CB010C946D02DC01FC01672FEA
:1004E00071917723E1F7329704C07C916D9370830B
:0E04F0006291AE17BF07C8F30895F894FFCFCE
:0E04FE0042726F6A206F627274616A61200040
:00000001FF
